:0400000002007B324D
:01000B0032C2
:0100130032BA
:01001B0032B2
:0100230032AA
:01002B0032A2
:01003300329A
:01003B003292
:01004300328A
:01004B003282
:01005300327A
:01005B003272
:01006300326A
:01006B003262
:030073000204F094
:0700D400E4F509F50AE4F56B
:0400DB000BF50C75A0
:0200DF00080017
:0300F8000200768D
:050076001200FB80FEFA
:0E00FB007A007B007C007D007E007F00D2AF8B
:040109007800790001
:06010D00E50860028025F8
:0E011300C002C003C004C005C006C007C00083
:0E012100C001120418D001D000D007D006D0C3
:09012F0005D004D003D00280D5F4
:0C013800750800C002C003C004C005C070
:0E01440006C007C000C001120439D001D0006F
:0E015200D007D006D005D004D003D002E84973
:07016000600518B8FF01194A
:0E016700C002C003C004C005C006C007C0002F
:0E017500C0011203DBD001D000D007D006D0AD
:0E01830005D004D003D00230C936C374649591
:0A0191000B7480850CF063F080957C
:06019B00F0500302020B0C
:0A01A100C374D095097487850AF035
:0E01AB0063F08095F050597A0A7B087C07BDFE
:0401B90000027DC8FB
:0601BD007E007F00804877
:0A01C300C3746495097480850AF086
:0C01CD0063F08095F040377464950B746B
:0C01D90080850CF063F08095F0501D74E0
:0401E5000AB5020055
:0301E90050011AA8
:0501EC00BA00028006CC
:0601F100BB0009BC000682
:0601F7007F647E00800E13
:0401FD007E64800A92
:04020100E4B505005B
:06020500500474642DFD9D
:08020B00EE606B745AB50600A9
:060213005004D296805D4C
:050219007450B5060061
:06021E005004C2CB805227
:050224007446B5060060
:060229005004D2CB804717
:05022F00743CB506005F
:060234005004C2CB803C27
:05023A007432B506005E
:06023F005004D2CB803117
:050245007428B506005D
:06024A005004C2CB802627
:05025000741EB506005C
:060255005004D2CB801B17
:05025B007414B506005B
:060260005004C2CB801027
:05026600740AB506005A
:06026B005004D2CB800517
:05027100EE6002C2CBAB
:030276001E8002E5
:02027900C2CBF6
:08027B00ED606B745AB505003B
:060283005004D296805DDC
:050289007450B50500F2
:06028E005004C2CB8052B7
:050294007446B50500F1
:060299005004D2CB8047A7
:05029F00743CB50500F0
:0602A4005004C2CB803CB7
:0502AA007432B50500EF
:0602AF005004D2CB8031A7
:0502B5007428B50500EE
:0602BA005004C2CB8026B7
:0502C000741EB50500ED
:0602C5005004D2CB801BA7
:0502CB007414B50500EC
:0602D0005004C2CB8010B7
:0502D600740AB50500EB
:0602DB005004D2CB8005A7
:0502E100ED6002C2CB3C
:0302E6001D800276
:0202E900C2CB86
:0802EB00EF606C745AB50700C6
:0602F3005004D2CC805D36
:0502F9007450B5070080
:0602FE005004C2CC805246
:050304007446B507007E
:060309005004D2CC804735
:05030F00743CB507007D
:060314005004C2CC803C45
:05031A007432B507007C
:06031F005004D2CC803135
:050325007428B507007B
:06032A005004C2CC802645
:05033000741EB507007A
:060335005004D2CC801B35
:05033B007414B5070079
:060340005004C2CC801045
:05034600740AB5070078
:06034B005004D2CC800535
:05035100EF6002C2CCC8
:040356001F02010D74
:05035A00C2CC02010D00
:0700E100E4F50DF50EE4F556
:0300E8000FF51001
:0E035F00AA8475840F43A40143A540759CD861
:0E036D0075C8C6759DFF759EFF759FFF75D8FC
:0E037B00FF75E8FF75F8FF5388FE75E1807589
:08038900E20475E3448A8422BA
:0E039100AA8475840F758A837597007589019B
:0C039F00758D01758E03758F01E4F51D4E
:0203AB00F51E3D
:0A03AD00C3E51D940FE51E64809463
:0A03B70080500D7401251DF51DE4B2
:0603C100351EF51E80E66A
:0303C70043890265
:0E03CA00E58930E4FB75970275840075B73045
:0303D8008A8422F2
:0903DB00E51030E705E4F50FF52B
:0103E4001008
:0903E500E50E30E705E4F50DF525
:0103EE000E00
:0A03EF0030C911050DE4B50D02053B
:0103F9000EF5
:0803FA00150F74FFB50F021589
:0104020010E9
:0A04030020C911150D74FFB50D029C
:02040D00150ECA
:07040F00050FE4B50F020523
:0104160010D5
:0104170022C2
:0E041800C2AF75E60075E70075A885C2DE5319
:0E042600C8FB759700758A8075AD004387018D
:05043400D2DEC2AF2280
:0A04390075FFDE75FFAD75FF0722A9
:0600EB00E4F51BF51C7595
:0600F1001100E4F512F518
:0100F70013F5
:0B044300AA82AB83ACF0FD85841A8513
:03044E00141D85F5
:03045100151E85F0
:03045400161F85EB
:0A045700172090000CE4F5F0C0023D
:0C046100C003C004C00512058085821D88
:07046D0085831E85F01FF5D9
:0C04740020D005D004D003D0028A828B77
:0E048000838CF0ED12051BAA82AB83ACF0FD5D
:04048E0085181D852B
:03049200191E75BB
:060495001F007520008528
:06049B0014828515838523
:0A04A10016F0E517C002C003C00406
:0E04AB00C00512051BAF82A883D005D004D077
:0A04B90003D0028F1288137584012E
:0E04C30075C80075C900C3E49AFAE49BFBE417
:0E04D1009CE49D8ACA8BCB75CCFF75CDFF4392
:0904DF00E70143C804851A8422D8
:0404E8007511002268
:0404EC0085118222D2
:0D04F000C0E0C0D075D000758401C2CFE51A
:0604FD001B451C700B857D
:03050300121B8543
:03050600131C754E
:040509001101800953
:08050D00151B74FFB51B02155C
:010515001CC9
:05051600D0D0D0E0325E
:08051B00FB7A20E4FCFDFEFF69
:0E052300E5822582F582E58333F583E5F0332A
:0B053100F5F0EB33FB4017DAE98042E5
:0E053C00E5822582F582E58333F583E5F03311
:05054A00F5F0EB33FBAE
:0E054F00EC33FCED33FDEE33FEEF33FFEC95A5
:06055D001DED951EEE9558
:080563001FEF95204013EC95F9
:08056B001DFCED951EFDEE954F
:090573001FFEEF9520FF438201F9
:02057C00DABEE5
:02057E00EB226E
:0600AA00E478FFF6D8FD2A
:080088007900E94400601B7AD5
:05009000009005F2786C
:030095000075A251
:0A00980000E493F2A308B80002058B
:0800A200A2D9F4DAF275A2FF05
:0C058000AAF0FBE582851DF0A4FCADF0A4
:0C058C00E583851DF0A42DFDE435F0FE94
:0C059800E582851EF0A42DFDE5F03EFE7E
:0C05A400E433FFEA851DF0A42EFEE5F014
:0C05B0003FFFE583851EF0A42EFEE5F061
:0C05BC003FFFE582851FF0A42EFEE5F055
:0B05C8003FFFEB851DF0A42FFFEA852C
:0A05D3001EF0A42FFFE583851FF042
:0C05DD00A42FFFE5828520F0A42F8EF0F3
:0505E9008D838C8222CD
:0800B0007800E84400600A79C1
:0300B8000075A22E
:0600BB0000E4F309D8FC8B
:0800C1007800E84400600C79AE
:0B00C90000900000E4F0A3D8FCD9FA7E
:03007B007581206C
:0A007E001205EEE582600302007631
:0405EE0075820022F0
:00000001FF
