:03000000020008F3
:0300640002000394
:050003001200B380FEB5
:07006700AA82AB83ACF0FD9F
:0A006E00EA4B4C4D603E7509907599
:060078000A01E4F50BF59E
:01007E000C75
:09007F00C3E49509E4950AE49537
:070088000BE4950C50151567
:07008F000974FFB509EA1531
:050096000AB50AE515A2
:05009B000BB50BE015A0
:0300A0000C80DCF5
:0E00A3001ABAFFC71BBBFFC31CBCFFBF1D80EA
:0100B100BC92
:0100B200222B
:0E00B3007A0075FFDE75FFAD75840F758A83C8
:0800C10075E34043A540D2960F
:0E00C900A2B7E433FB702D900014E4F5F0C0F4
:0600D70002120067D002D6
:0D00DD00A2B7E433FB60F90ABA0D027A0005
:0E00EA00EA2AFB90027393CBA3938B82C00291
:0500F800120112D0020C
:0E00FD00B2969003E8E4F5F0C002120067D05E
:03010B000280BBB4
:0E027300010006000200030005000700040061
:0C02810008000300090006000A000B0042
:030061007508001F
:04010E0085088222BC
:0C011200AA82AB84A2AF9200BA000122C6
:0C011E0075840FC2AF8A087407B5020098
:05012A0050030201E793
:08012F00758AC0E4F509F50A28
:0A013700C3E509940FE50A64809403
:0A01410080500D74012509F509E452
:06014B00350AF50A80E60A
:080151007597007404B502006B
:07015900402BBA0102800FE8
:05016000BA0202800F4D
:05016500BA0302800F47
:05016A00BA0414800F2F
:05016F00758A80800D7F
:05017400758A8180087E
:05017900758A8280037D
:03017E00758A83FC
:05018100759700805B92
:0B018600759710758903BA0502800A06
:05019100BA0602801017
:05019600BA07218016EC
:0B019B00758D01758F21758E1080148A
:0B01A600758D01758F01758E188009A2
:0901B100758D01758F01758E201A
:0501BA00E4F509F50A5F
:0A01BF00C3E509940FE50A6480947B
:0A01C90080500D74012509F509E4CA
:0601D300350AF50A80E682
:0801D900E58930E4FB75971085
:0601E100759700020266A2
:0801E700758CE7E4F509F50A47
:0A01EF00C3E50994B8E50A648094A2
:0A01F9008B500D74012509F509E48F
:06020300350AF50A80E651
:08020900BA0805759701805247
:0B021100759710758907BA0502800A76
:05021C00BA0602800D8E
:05022100BA071880106F
:08022600758D01758E16800E26
:08022E00758D01758E2180061B
:06023600758D01758E2C90
:05023C00E4F509F50ADC
:0A024100C3E509940FE50A648094F8
:0A024B0080500D74012509F509E447
:06025500350AF50A80E6FF
:08025B00E58930E4FB75971002
:030263007597018B
:09026600D2AF8B84A20092AF22FA
:06003700E478FFF6D8FD9D
:080015007900E94400601B7A48
:05001D000090028D7847
:030022000075A2C4
:0A00250000E493F2A308B8000205FE
:08002F00A2D9F4DAF275A2FF78
:08003D007800E84400600A7934
:030045000075A2A1
:0600480000E4F309D8FCFE
:08004E007800E84400600C7921
:0B00560000900000E4F0A3D8FCD9FAF1
:03000800758120DF
:0A000B0012026FE582600302000399
:04026F007582002272
:00000001FF
