:0400000002008B323D
:01000B0032C2
:0100130032BA
:01001B0032B2
:0100230032AA
:01002B0032A2
:01003300329A
:01003B003292
:01004300328A
:01004B003282
:01005300327A
:01005B003272
:01006300326A
:01006B003262
:030073000207641D
:03007B0002077702
:0300830002093C33
:0301310002008643
:0500860012013480FEB0
:0C01340075080075FFDE75FFAD1203B406
:070140001203E6754780750C
:060147004825E4F549F52E
:0C014D004A90856075F06174041209DEB0
:07015900752264E4F523F5B3
:0A01600024F52590856075F06174A8
:08016A00041206C0753F407548
:06017200400D754103750C
:0B017800420090856075F06174041275
:0E01830007C6902710E4F5F0120881D2AF7580
:04019100840F7B005C
:0E019500C00312069AE582D0036004D2CC802B
:0101A3000259
:0201A400C2CCCB
:0E01A600C00312069AE582D00360F5C0031272
:0501B40006AEE5082580
:0601B900082400FCE43400
:0C01BF0000FD758200C004C00512065847
:0901CB00AE82AF838E718F727554
:0A01D4007300757400900960E4F5F3
:0C01DE00F0120BC9AE82AF83A8F0F975D7
:0701EA0071F07572FFE4F5EE
:0A01F10073F5748E828F8388F0E9A5
:0E01FB00120C37AE82AF83A8F0F9D005D00405
:0C020900D0038C828D83EEF0A3EFF08513
:03021500080905D0
:0702180008741EB508037510
:02021F000800D5
:03022100BB1E0001
:0302240050010B7B
:03022700BB050014
:05022A005003020195E4
:08022F00E4FDFEF50AF50BF5F4
:060237000CF50D74FB251F
:0A023D00085009D2CBE50824FBFCB1
:02024700800530
:0502490074192508FCFA
:06024E00ECB50802801E61
:0A025400EC2C2400F582E43400F5E0
:0E025E0083E0FFA3E0F8EF2DFDE83EFE0CBCB0
:06026C001EE07C0080DCB6
:0A0272007571057572008D828E8390
:0E027C00C003120B22AD82AE83D003C3ED94FB
:0C028A00E8EE94035017754400758208DC
:0E029600C003C005C0061208EDD006D005D08A
:0302A40003805B79
:0E02A700C374E89D74039E5034C3ED94D0EEF2
:0E02B5009407502BED2418F582EE34FCF583EF
:0A02C30075710A757200C003C005D2
:0C02CD00C006120B22AC828C4475820823
:0B02D9001208EDD006D005D003801EF7
:0C02E400C374D09D74079E5015754464CF
:0E02F000758208C003C005C0061208EDD006D6
:0402FE00D005D00354
:020302007C007D
:04030400ECB5030051
:0A030800502AEC2C2400F582E434A6
:0C03120000F583E0FFA3E0F8E4F9FAEF47
:06031E00250AF50AE8358E
:050324000BF50BE935AB
:050329000CF50CEA35A3
:06032E000DF50D0C80D05E
:060334008B71757200756B
:06033A00730075740085DC
:060340000A82850B838593
:0A0346000CF0E50DC003C005C00671
:08035000120B4B85820A858324
:050358000B85F00CF51F
:08035D000DD006D005E50925CD
:07036500092400F582E434D5
:0A036C0000F583E0FAA3E0FCC00AEC
:05037600C00BC00CC02B
:0A037B000DC005C006C002C00474E6
:0A03850033C0E07413C0E07480C0C0
:0A038F00E0743CC0E07400C0E0E43C
:0E039900C0E0120D1FE58124F2F581D2AF9075
:0B03A700003C75F000120430D003028F
:0203B2000195B3
:0E133300566F6C74616765203A202575202C7A
:0E1341002041766572616765206F66206669DF
:0E134F00766520766F6C74616765733A2025B1
:0E135D0064202C2041766572616765206F6602
:0E136B0020566F6C7461676573203A20256C04
:0413790064200A00E2
:0E03B400AA8475840F43A40143A540759CD80C
:0E03C20075C8C6759DFF759EFF759FFF75D8A7
:0E03D000FF75E8FF75F8FF5388FE75E1807534
:0803DE00E20475E3448A842265
:0E03E600AA8475840F758A8375970075890146
:0C03F400758D01758E03758F01E4F571A5
:02040000F57293
:0A040200C3E571940FE57264809465
:0A040C0080500D74012571F571E4B4
:060416003572F57280E66C
:03041C004389020F
:0E041F00E58930E4FB75970275840075B730EF
:03042D008A84229C
:06043000AA82AB83ACF0D0
:0E0436008A828B838CF0121313FD6037BD0A8F
:0E0444001275820DC002C003C004120B11D04D
:0504520004D003D002FC
:0E0457008A828B838CF0121313FDA3AA82AB52
:0E046500838D82C002C003C004120B11D004AC
:06047300D003D00280BDA1
:010479002260
:0A047A00AA82AB83ACF0850E168554
:090484000F178A828B838CF002B1
:02048D00056800
:0B048F00AA82AB83ACF0151074FFB51F
:04049A001002151126
:04049E007D007E005F
:0E04A200C002C003C004C005C006120B01AFAB
:0E04B00082D006D005D004D003D002BF0A02CD
:0204BE008003B9
:0304C000BF0D0A63
:0A04C3008A828B838CF0E4020BB0F8
:0A04CD00C3ED9510EE951150CC8A96
:0E04D700828B838CF0EF120BB0A3AA82AB8352
:0704E5000DBD00B90E80B649
:0A04EC00AA82AB83ACF0AD12AE1390
:0E04F600ED4E602F8A828B838CF0121313FF61
:0E050400A3AA82AB838F82C002C003C004C0D2
:0E05120005C006120B11D006D005D004D00390
:09052000D0021DBDFFD01E80CDEC
:0105290022AF
:0A052A00AA82AB83ACF0AD14AE154D
:0E053400ED4E602FC002C003C004C005C0061B
:0E054200120B01AF82D006D005D004D003D03A
:0E055000028A828B838CF0EF120BB0A3AA827A
:09055E00AB831DBDFFD01E80CD52
:010567002271
:0C056800AA82AB83ACF07D007E0015166B
:0705740074FFB51602151714
:0E057B00C002C003C004C005C006120B01AFD1
:0E05890082D006D005D004D003D002BF0802F5
:02059700800AD8
:05059900BF0A02803BD7
:05059E00BF0D61803675
:0E05A300ED4E60D4758208C002C003C004C0D3
:0E05B10005C006120B11758220120B11758207
:0E05BF0008120B11D006D005D004D003D002D4
:0505CD001ABAFF011B3A
:0505D2001DBDFF011E2C
:0205D70080A200
:0E05D90075820DC002C003C004120B117582A2
:0E05E7000A120B11D004D003D0028A828B833B
:0D05F5008CF0E4120BB08A828B838CF02214
:0A060200C3ED9516EE951750308AEF
:0E060C00828B838CF0EF120BB0A3AA82AB831B
:05061A000DBD00010E02
:0D061F008F82C002C003C004C005C00612D7
:0D062C000B11D006D005D004D003D002027F
:02063900057B3F
:0E063B00758207C002C003C004C005C00612CD
:0D0649000B11D006D005D004D003D0020262
:02065600057B22
:0C065800AA82A2AFE433FBC2AFEA2A245E
:0A066400A0F582E43400F583E0FA0B
:0D066E00A3E0FCEB24FF92AF8A828C832274
:0C067B00AA82AB84EA30E00B7584018594
:0706870071D28572D38009D6
:09068E007584008571D28572D3D8
:030697008B84222F
:0E069A00A2AFE433FAC2AF9000B2E0FBEA2454
:0606A800FF92AF8B8222DD
:0E06AE00A2AFE433FAC2AF9000B2E4F0EA2447
:0406BC00FF92AF22D8
:0B06C000AA82AB83ACF0FD8584267598
:0606CB00710CE4F572F56C
:0A06D10073F5748A828B838CF0EDC0
:0C06DB00C002C003C004C005120B4B8518
:0306E700227185F8
:0306EA00237285F3
:0306ED00247385EE
:0306F0002574125C
:0E06F3000B4BAE82AF83D005D004D003D002F3
:0E07010075840175C80075C900C3E49EF5CA71
:0E070F00E49FF5CB85CACC85CBCD43E70143F3
:0C071D00C80475840075E8417571A07572
:06072900722575732675B0
:0C072F0074008A828B838CF0ED120B4B5F
:0E073B00E582C40354F8F5BC85BCBC75D1073B
:0E07490075BA0075BB0043E702D2EF7584005D
:0C07570075D48F75840175D48F852684BD
:010763002273
:0E076400758401C2CF75840075BB0053BCF8CC
:05077200C2EDD2EC32E3
:0E077700C0E0C082C083C0D075D01875840069
:0A078500E5BB25E024A0F582E43472
:0C078F0000F583AABEABBFEAF0A3EBF0BC
:0E079B00C2ED74F825BB400E05BB7408B5BB5B
:0407A9000343BC0149
:0407AD00D2EC800CFE
:0C07B1009000B27401F075BB0053BCF85E
:0907BD00D0D0D083D082D0E0320C
:011388000064
:0600E400E4F545F5467548
:0600EA0027507528C375C4
:0600F00029E8752A0375E2
:0600F6002B1E752C0575A0
:0600FC002D00752E0075B9
:060102002F0075300075AE
:06010800310075320075A4
:06010E003300753480751A
:0601140035007536807510
:06011A0037007538807506
:060120003900753A8075FC
:060126003B00753C8075F2
:05012C003D00753E805E
:0B07C600AA82AB83ACF0FD8584438564
:0307D1003F7185F0
:0307D400407285EB
:0307D700417385E6
:0A07DA00427490000CE4F5F0C00238
:0C07E400C003C004C005120BC98582715F
:0707F00085837285F073F5AB
:0C07F70074D005D004D003D0028A828B9D
:0E080300838CF0ED120B4BAA82AB83ACF0FDA0
:04081100853F278573
:03081500402885F3
:03081800297185BE
:03081B002A7275C9
:0A081E00730075740090FFFFE4F50D
:0D082800F0C002C003C004C005120BC9855A
:03083500277185A3
:03083800287275AE
:06083B0073007574001249
:0E0841000C37AE82AF83D005D004D003D002B6
:0A084F008E2B8F2C75840F43A73FFA
:0E08590075840275C80075C900C3E49AFAE4FC
:0E0867009BFBE49CE49D8ACA8BCB85CACC85A2
:0C087500CBCD43E70443C8048543842234
:0C088100AA82AB83ACF0FDA2AF9200C2D3
:0E088D00AFC3EA9401EB9400EC9400ED9400EC
:0A089B0050087A017B007C007D000C
:0508A5008A298B2A8561
:0308AA002971852C
:0308AD002A727537
:0A08B000730075740090FFFFE4F57B
:0608BA00F0120BC98527B6
:0308C00071852817
:0508C300727573007561
:0A08C8007400120C37AA82AB838A79
:0408D2002B8B2CA29E
:0408D6000092AF22BB
:0A08DA00AA82A2AF9201C2AFEA2485
:0508E4002DF8A671A231
:0408E9000192AF22A7
:0B08ED00AA82A2AF9202C2AFEA2A2446
:0408F80033F8854408
:0508FC0071757200752A
:0A090100730075740090FFFFE4F529
:0E090B00F0C000120BC9AA82AB83ACF0FD75E0
:060919007164E4F572F5C3
:0A091F0073F5748A828B838CF0ED6F
:0E092900120C37AA82AB83D000A60208A603E8
:05093700A20292AF22B4
:0E093C00C0E0C0D075D01875840253C87FE5A6
:04094A002B2545F51F
:04094E0045E52C351A
:0609520046F5467401B5F4
:060958002D0FC3E54595DB
:04095E0033E54695A2
:07096200345004D2B0800202
:02096900C2B01A
:09096B007401B52E0FC3E545959A
:0409740035E546958A
:07097800365004D2B18002E9
:02097F00C2B103
:090981007401B52F0FC3E5459583
:04098A0037E5469572
:07098E00385004D2B28002D0
:02099500C2B2EC
:090997007401B5300FC3E545956C
:0409A00039E546955A
:0709A4003A5004D2B38002B7
:0209AB00C2B3D5
:0909AD007401B5310FC3E5459555
:0409B6003BE5469542
:0709BA003C5004D2B480029E
:0209C100C2B4BE
:0909C3007401B5320FC3E545953E
:0409CC003DE546952A
:0709D0003E5004D2B5800285
:0209D700C2B5A7
:0509D900D0D0D0E03297
:0809DE0085824B85834C85F0F6
:0509E6004DF54E858473
:0309EB004F8547EE
:0309EE00718548C8
:0309F100728549C3
:0309F40073854ABE
:0509F70074854B8285B0
:0609FC004C83854DF0E57F
:0C0A02004E120B4BAF82A883A9F0FE75CA
:0E0A0E00840175981075840053890F43892068
:0E0A1C00EE7D00C313FCE913FBE813FAC3944C
:0E0A2A0001EB9400EC9400ED94005018EEC324
:0E0A380013FDE913FCE813FBEF13FAC3E49A75
:080A4600F58D438E10020AC178
:0A0A4E00E4B5471074C2B5480B74FC
:0A0A580001B54906E4B54A02800228
:020A62008037DB
:0A0A64007480B54B32745CB54C2D64
:0A0A6E0074D7B54D287405B54E236A
:070A7800757160E4F572F5F1
:0A0A7F0073F5748F82888389F0EE0E
:0E0A8900120B4BAA82AB83ACF0FD0AC3E49AB9
:040A9700F58D802039
:070A9B00757160E4F572F5CE
:0A0AA20073F5748F82888389F0EEEB
:0E0AAC00120B4BAA82AB83ACF0FDC3E49AF5AB
:010ABA008DAE
:060ABB00538EEC438E0295
:0C0AC100858D8BD28E758401D299854FF3
:020ACD00842281
:0E0ACF00AA84758400C28E758900758E00752C
:080ADD0084017598008A84224F
:0E0AE500AA84758401A298E433F5828A8422E3
:0E0AF300AA84758401A299E433F5828A8422D4
:050B0100AA84758401C7
:0B0B06003098FD859982C2988A8422F5
:070B1100AA82AB8475840188
:050B180010990280FBB2
:050B1D008A998B84227F
:050B22007A10E4FBFC69
:0E0B2700E58225E0F582E58333F583EB33FBB1
:0A0B3500EC33FCEB9571F5F0EC9544
:090B3F00724006FCABF043820198
:030B4800DADD22D1
:080B4B00FB7A20E4FCFDFEFF33
:0E0B5300E5822582F582E58333F583E5F033F4
:0B0B6100F5F0EB33FB4017DAE98042AF
:0E0B6C00E5822582F582E58333F583E5F033DB
:050B7A00F5F0EB33FB78
:0E0B7F00EC33FCED33FDEE33FEEF33FFEC956F
:060B8D0071ED9572EE957A
:080B930073EF95744013EC951B
:080B9B0071FCED9572FDEE9571
:090BA30073FEEF9574FF4382011B
:020BAC00DABEAF
:020BAE00EB2238
:0600BA00E478FFF6D8FD1A
:080098007901E94400601B7AC4
:0500A0000190138878B7
:0300A500B275A28F
:0A00A80000E493F2A308B80002057B
:0800B200A2D9F4DAF275A2FFF5
:0E0BB00020F71030F6118883A88220F507F692
:050BBE00A8837583000F
:010BC300220F
:030BC400F280F7C5
:020BC700F0221A
:0C0BC900AAF0FBE5828571F0A4FCADF001
:0C0BD500E5838571F0A42DFDE435F0FEF1
:0C0BE100E5828572F0A42DFDE5F03EFEDB
:0C0BED00E433FFEA8571F0A42EFEE5F071
:0C0BF9003FFFE5838572F0A42EFEE5F0BE
:0C0C05003FFFE5828573F0A42EFEE5F0B1
:0B0C11003FFFEB8571F0A42FFFEA8588
:0A0C1C0072F0A42FFFE5838573F04A
:0C0C2600A42FFFE5828574F0A42F8EF04F
:050C32008D838C82227D
:0800C0007800E84400600A79B1
:0300C8000075A21E
:0600CB0000E4F309D8FC7B
:0800D10078B2E84400600C79EC
:0B00D90001900000E4F0A3D8FCD9FA6D
:0E0C3700FBC2D530E715D2D5E4C39582F58215
:0D0C4500E49583F583E495F0F5F0E49BFB66
:0A0C5200E57430E717B2D5E4C3954E
:050C5C0071F571E49543
:050C610072F572E4953C
:050C660073F573E49535
:030C6B0074F574A9
:0E0C6E00EB120B4B30D513FBE4C39582F582DD
:0C0C7C00E49583F583E495F0F5F0E49B2B
:010C88002249
:080C8900C057858157C082E5C8
:0C0C91005724FBF886820886830886F052
:0B0C9D00121313FEA3121313FFA31287
:0D0CA8001313FA74012EFBE43FFC8A05E5EE
:0C0CB5005724FBF886820886830886F02E
:0C0CC100EB120BB0A3EC120BB0A3ED1271
:0C0CCD000BB08E828F838AF0A85708E6D7
:070CD900120BB0855781D01A
:020CE000572299
:080CE20085825485835585F0DD
:030CEA00567564D8
:050CED0054756500755F
:040CF2006640855083
:030CF600678551BE
:030CF900688552B9
:030CFC00698553B4
:050CFF006A900C89124F
:090D04000E07AA82AB83AC54ADCA
:0A0D0D0055AE568C828D838EF0E403
:080D1700120BB08A828B8322CB
:060D1F00C057858157E575
:060D25005724F8F56AE511
:070D2B005724FBFA8A6475EE
:060D32006500756640E556
:080D38005724F8F886670886CD
:050D40006808866990BF
:0A0D45000C89120E07AA82AB83E5A9
:0C0D4F005724FBF8860408860508860679
:0E0D5B008C828D838EF0E4120BB08A828B8323
:030D6900D057223E
:070D6C00AA82C05AC05BC05F
:060D73005C7483C0E07413
:060D79000DC0E0C058C0EF
:040D7F00598A8222E9
:0A0D83001581158115810562E4B5A4
:040D8D006202056396
:010D9100223F
:0B0D9200AA8274302AFA7439B50200FE
:0C0D9D00500A74072AFA300303430220B6
:050DA9008A82020D6CBE
:0E0DAE00E582FAC4540FF582C002120D92D0F5
:090DBC0002740F5AF582020D9237
:060DC500858271AB5DACFC
:040DCB005EAD5FAE0C
:040DCF0060AF61753B
:020DD30072208C
:0E0DD500EF2FFFEE235401FA4207EB2BFBEC4D
:0C0DE30033FCED33FDEE33FEEFB5710084
:0A0DEF004008EFC39571FF430301B4
:060DF900D572D98B5D8C60
:040DFF005E8D5F8E18
:040E0300608F612279
:070E0700858258858359859F
:030E0E00645A859E
:030E1100655B8599
:040E1400665CE4F53F
:030E180062F5631D
:050E1B00AA67AB68AC02
:0C0E2000698A828B838CF0121313FD741E
:090E2C00012AF567E43BF5688C2E
:080E350069EDFA70030212F4EA
:050E3D00BA250280034C
:030E42000212ECAD
:050E4500C204C205C259
:040E4A0006C207C213
:040E4E0008C209C20B
:040E52000AC20B7550
:080E56006B00756C007DFFAE1E
:040E5E0067AF68AB67
:010E62006926
:0E0E63008E828F838BF0121313FAA3AE82AF30
:060E7100838E678F688B81
:0B0E770069BA25078A82120D6C809971
:050E82008A04BC3000F1
:090E870040288A047439B5040006
:0C0E9000401FBDFF11E56C75F00AA42A9C
:0A0E9C0024D0F56C70C1D20580BDB2
:0B0EA600ED75F00AA42A24D0FD80B2F4
:0A0EB100BA2E07BDFFAC7D0080A83B
:050EBB008A04BC610087
:090EC00040108A04747AB50400A4
:090EC90040075302DFD20380024E
:020ED200C20359
:050ED400BA2002805568
:050ED900BA2B02804B62
:050EDE00BA2D02804165
:050EE300BA4202804B41
:050EE800BA4302805036
:060EED00BA440302109557
:060EF300BA46030210AB39
:060EF900BA490302109546
:050EFF00BA4C02803432
:060F0400BA4F0302109C2D
:060F0A00BA500302102C96
:050F1000BA5302804C01
:060F1500BA55030210A111
:060F1B00BA58030210A603
:030F21000210AF0C
:050F2400D204020E637F
:050F2900D206020E6378
:050F2E00D207020E6372
:050F3300D209020E636B
:050F3800D20A020E6365
:080F3D0030090AE56A14F88886
:050F45006A8602800F26
:0A0F4A00E56A24FEF8886A860308B1
:050F54008604188B0269
:080F59008A82120D6C0210B82F
:0A0F6100E56A24FDF8886A8603089B
:0A0F6B00860408860618188B5D8CBA
:0A0F75005E8E5F8B828C838EF0C0CD
:0E0F7F00051212FBAB82AC83D005BDFF028BC6
:010F8D00055E
:070F8E0020042CEBB56C0000
:090F95005026E56CC39BF56CAC21
:010F9E006CE6
:0C0F9F008C061C8C6CEE6014758220C067
:0E0FAB0003C004C005120D6CD005D004D003A5
:020FB90080E4D2
:020FBB008C6C3C
:020FBD008D04A1
:070FBF00855D82855E8385DC
:0C0FC6005FF0121313FDFA602F8C051C65
:0E0FD200C374808DF063F08095F050208A8209
:0C0FE000C003C004120D6CD004D003AD9F
:040FEC005DAE5EAFE9
:060FF0005F0DBD00010EC3
:050FF6008D5D8E5E8F91
:030FFB005F80C153
:060FFE002004030210B8FC
:04100400EBB56C00DC
:0510080040030210B8D6
:07100D00E56CC39BF56CAC20
:011014006C6F
:0B1015008C051C8C6CED70030210B603
:0C102000758220C004120D6CD00480E921
:0A102C00E56A24FDF8886A860508CD
:0A103600860608860718188D5D8EE7
:041040005E8F5FADB3
:041044005FBD80000C
:0610480040047A4380140D
:03104E00BD600082
:0610510040047A50800B00
:03105700BD400099
:06105A0040047A49800207
:021060007A58BC
:0E1062008A82C002120D6C75823A120D6C75F6
:0E1070008230120D6C758278120D6CD002BAAF
:04107E004902800B98
:05108200BA50028006D7
:06108700855E82120DAE31
:08108D00855D82120DAE802387
:07109500D208756B0A801CF4
:05109C00756B088017D0
:0510A100756B0A8012CE
:0510A600756B10800DC8
:0410AB00D20B8009DB
:0710AF008A82120D6C800221
:0210B6008C6C40
:0910B800300B5AE56A24FCF888AB
:0C10C1006A860408860508860608860773
:0810CD001818188C5D8D5E8E71
:0410D5005F8F607554
:0310D9005D7D75C5
:0310DC005E13752B
:0210DF005F8030
:0410E100855D6E8536
:0310E5005E6F85B6
:0510E8005F707401259A
:0710ED006EFFE4356FFCAD5E
:0410F400708F5D8C10
:0410F8005E8D5F8525
:0610FC006E82856F838502
:0A11020070F0121313FCFA700302E0
:02110C000E1BB8
:07110E008A82120D6C80CCF7
:07111500E56B7003020E1BE5
:04111C00756D7A3043
:07112000092BE56A14F888B1
:0A1127006AE6FD3395E0FEFFFC8D43
:041131005D8E5E8FE2
:041135005F8C60204B
:0A1139000862AC5D7D007E007F00BF
:051143008C5D8D5E8E45
:051148005F8F60805084
:09114D00300A1FE56A24FCF88851
:0C1156006A8604088605088606088607DD
:081162001818188C5D8D5E8EDB
:05116A005F8F60802E84
:0A116F00E56A24FEF8886A86040889
:0C117900860518ED3395E0FEFF8C5D8DBF
:041185005E8E5F8F8C
:0511890060200810AC1D
:08118E005DAD5E7E007F008C68
:041196005D8D5E8E7F
:03119A005F8F6004
:06119D00300825AC5DAD39
:0411A3005EAE5FE5F8
:0C11A70060FF30E717C3E49CFCE49DFDF2
:0A11B300E49EFEE49FFF8C5D8D5E5C
:0611BD008E5F8F608002CE
:0211C300C20860
:0611C500D20CA86D7C00B5
:0A11CB00756100856B82C004C0004E
:0B11D500120DC5D000D004200C0DE569
:0A11E00061C4FDE6FE4DF618886DAF
:0211EA00800281
:0211EC00A661FA
:0811EE000C8C03B20CE55D4519
:0411F6005E455F45AE
:0811FA006070CE886D8C03E5E6
:061202006C7003756C0125
:0A120800200525200422EB04FCADB4
:011212006C6F
:04121300ECB5050031
:0E1217005015758220C003C004C005120D6C76
:09122500D005D004D0031D80E5C2
:02122E008D6CC5
:0C12300030080E75822DC003120D6CD02A
:05123C0003156C802386
:0C124100EB602030060E75822BC00312FB
:08124D000D6CD003156C800F3D
:0C12550030070C758220C003120D6CD015
:0312610003156C06
:05126400200425AC6C24
:091269008C051C8C6CEBB5050032
:09127200502B3005047D30800290
:02127B007D20D4
:0E127D008D82C003C004120D6CD004D003801B
:01128B00DD85
:04128C00EBB56C0052
:0A1290005008E56CC39BF56C800765
:05129A00756C008002EC
:02129F008C6C55
:0212A100A86D36
:0A12A3008B041BEC6026B20C200C3B
:0B12AD000A08E6C4540FFC8C618007A7
:0712B8008604740F5CF56170
:0C12BF00856182C003C000120D92D000B7
:0412CB00D00380D4F8
:0612CF00200403020E1BC7
:0212D500AB6C00
:0912D7008B041BEC7003020E1BDA
:0C12E000758220C003120D6CD00380EB5F
:0812EC008A82120D6C020E1B38
:0712F40085628285638322FD
:0B137D003C4E4F20464C4F41543E00B8
:0412FB00AA82AB8395
:0812FF001213136003A380F831
:0C130700C3E5829AF582E5839BF5832202
:03008B0075817A02
:0A008E0012132FE5826003020086C2
:0E13130020F71430F6148883A88220F507E630
:06132100A8837583002281
:03132700E280F76A
:03132A00E4932227
:02132D00E022BC
:04132F0075820022A1
:00000001FF
