:03000000020008F3
:03006D000200038B
:0500030012007080FEF8
:0D00700075FFDE75FFAD120516120548750F
:07007D002280752325E4F544
:0A00840024F52590856075F0617485
:08008E00041205921203E79031
:060096000000E4F0A3F0FD
:0E009C00120503E582602B900DFE75F08012B8
:0600AA0001BF750C1D757D
:0900B0000D0090000275F0001231
:0900B900020990002175F000120B
:0A00C20001BF900000E4F0A3F0126B
:0200CC0005101D
:0A00CE00120503E582600302019BA6
:0400D800754B0075EF
:0300DC004C007560
:0900DF004D00754E1E75820012E1
:0900E800047C900E1275F08012E8
:0900F10001BF90000275F000123D
:0900FA0001BF900E2275F0801286
:0601030001BF750C04753C
:090109000D0090000875F0401291
:090112000209AA08BA790280036F
:03011B00BA595E70
:0D011E00900000E0FAA3E0FB0ABA00010B1C
:0E012B00900000EAF0A3EBF0900E2B75F08030
:0E0139001201BF900000E0FAA3E0FBC002C07C
:0A01470003743AC0E0740EC0E074C7
:0A01510080C0E0743FC0E07400C0FD
:0E015B00E0E4C0E01207EAE58124F8F58190A7
:09016900003F75F0001201BF9087
:0A0172000E3D75F0801201BF801FE2
:0A017C00900DFE75F0801201BF75B2
:060186000C1D750D009038
:09018C00000275F0001202099056
:060195000000E4F0A3F0FD
:0D019B0090002175F0001201BF7582001266
:0401A80003EB754BA5
:0301AC0000754C8F
:0501AF0000754D007514
:0901B4004E1E75820012041A02AD
:0201BD00009CA4
:0E0DFE005768617420697320796F7572206EDA
:060E0C00616D653F20004E
:0E0E120048656C6C6F2C2061726520796F75DD
:020E20002000B0
:090E22003F2028792F6E292000E1
:0E0E2B00596F75206C6F6767656420696E20D3
:010E390000B8
:030E3A002564002C
:090E3D002074696D6573200A0040
:0601BF00AA82AB83ACF044
:0E01C5008A828B838CF0120DDEFD6037BD0A3E
:0E01D3001275820DC002C003C0041206C5D012
:0501E10004D003D00270
:0E01E6008A828B838CF0120DDEFDA3AA82AB01
:0E01F400838D82C002C003C0041206C5D00471
:06020200D003D00280BD14
:0102080022D3
:0A020900AA82AB83ACF0850C1485CB
:090213000D158A828B838CF00228
:02021C0002F7E7
:0B021E00AA82AB83ACF0150E74FFB594
:040229000E02150F9D
:04022D007D007E00D2
:0E023100C002C003C004C005C0061206B5AF6F
:0E023F0082D006D005D004D003D002BF0A0240
:02024D0080032C
:03024F00BF0D0AD6
:0A0252008A828B838CF0E402073BE4
:0A025C00C3ED950EEE950F50CC8A0D
:0E026600828B838CF0EF12073BA3AA82AB833E
:070274000DBD00B90E80B6BC
:0A027B00AA82AB83ACF0AD10AE1107
:0E028500ED4E602F8A828B838CF0120DDEFF0F
:0E029300A3AA82AB838F82C002C003C004C046
:0E02A10005C0061206C5D006D005D004D00355
:0902AF00D0021DBDFFD01E80CD60
:0102B8002223
:0A02B900AA82AB83ACF0AD12AE13C5
:0E02C300ED4E602FC002C003C004C005C0068F
:0E02D1001206B5AF82D006D005D004D003D0FF
:0E02DF00028A828B838CF0EF12073BA3AA8267
:0902ED00AB831DBDFFD01E80CDC6
:0102F60022E5
:0C02F700AA82AB83ACF07D007E001514E1
:0703030074FFB5140215158B
:0E030A00C002C003C004C005C0061206B5AF95
:0E03180082D006D005D004D003D002BF080268
:02032600800A4B
:05032800BF0A02803B4A
:05032D00BF0D618036E8
:0E033200ED4E60D4758208C002C003C004C046
:0E03400005C0061206C57582201206C575821C
:0E034E00081206C5D006D005D004D003D00298
:05035C001ABAFF011BAD
:050361001DBDFF011E9F
:0203660080A273
:0E03680075820DC002C003C0041206C5758266
:0E0376000A1206C5D004D003D0028A828B83FF
:0D0384008CF0E412073B8A828B838CF02200
:0A039100C3ED9514EE951550308A67
:0E039B00828B838CF0EF12073BA3AA82AB8308
:0503A9000DBD00010E76
:0D03AE008F82C002C003C004C005C006124B
:0D03BB0006C5D006D005D004D003D0020244
:0203C800030A26
:0E03CA00758207C002C003C004C005C0061241
:0D03D80006C5D006D005D004D003D0020227
:0203E500030A09
:07006100751600751700750C
:03006800184675C2
:02006B00190E6C
:0403E70043EF0222BC
:0C03EB00AA82A2AF9200AB84758400C20D
:0C03F700AF43B701438F03438F04EA2596
:0A04030016F582E43517F583E4F0E6
:0C040D00538FF853B7FEA20092AF8B840F
:0104190022C0
:09041A0085824FA2AF9201858496
:0404230050AC4BADE1
:0A0427004CAE4D758400C2AF43B720
:0904310001438F01438F047F0099
:04043A00EFB54E00CC
:0C043E00502EA84F79008F037A00EB28A5
:0A044A00F8EA39F9E82516F8E9355B
:0C04540017F98C828D838EF0120DDEFAF9
:0E046000A3AC82AD8388828983EAF00F80CC42
:0B046E00538FFA53B7FEA20192AF8536
:030479005084228A
:09047C0085824FA2AF9202858433
:0404850050AC4BAD7F
:0A0489004CAE4D758400C2AF438FE6
:03049300047F00E3
:04049600EFB54E0070
:0C049A005029A84F79008F037A00EB284E
:0E04A600F8EA39F98882740029F583E493FAA4
:0E04B4008C828D838EF012073BA3AC82AD8349
:0304C2000F80D1D7
:0A04C500538FFBA20292AF85508412
:0104CF00220A
:0804D000900E46E493F5822230
:0C04D800AA82A2AF9203AB84758400C21C
:0C04E400AF53A1FE43B701758F018518CE
:0C04F00082851983EAF0858F8F53B7FED8
:0704FC00A20392AF8B8422E2
:0A0503001204D0AA82E4BAFF01043A
:03050D00F5822252
:060510007582000204D810
:010E4600FFAC
:0E051600AA8475840F43A40143A540759CD8A8
:0E05240075C8C6759DFF759EFF759FFF75D843
:0E053200FF75E8FF75F8FF5388FE75E18075D0
:08054000E20475E3448A842201
:0E054800AA8475840F758A83759700758901E2
:0C055600758D01758E03758F01E4F54B67
:02056200F54C56
:0A056400C3E54B940FE54C6480944E
:0A056E0080500D7401254BF54BE49D
:06057800354CF54C80E655
:03057E00438902AC
:0E058100E58930E4FB75970275840075B7308C
:03058F008A842239
:0805920085822685832785F090
:05059A0028F52985840D
:03059F002A852288
:0305A2004B852363
:0305A5004C85245E
:0305A8004D852559
:0505AB004E852682854B
:0605B00027838528F0E519
:0C05B600291206D6AF82A883A9F0FE75BA
:0E05C200840175981075840053890F438920B9
:0E05D000EE7D00C313FCE913FBE813FAC3949D
:0E05DE0001EB9400EC9400ED94005018EEC375
:0E05EC0013FDE913FCE813FBEF13FAC3E49AC6
:0805FA00F58D438E1002067519
:0A060200E4B5221074C2B5230B7496
:0A060C0001B52406E4B525028002C2
:0206160080372B
:0A0618007480B52632745CB5272DFE
:0A06220074D7B528287405B5292304
:07062C00754B60E4F54CF58D
:0A0633004DF54E8F82888389F0EEAA
:0E063D001206D6AA82AB83ACF0FD0AC3E49A83
:04064B00F58D802089
:07064F00754B60E4F54CF56A
:0A0656004DF54E8F82888389F0EE87
:0E0660001206D6AA82AB83ACF0FDC3E49AF575
:01066E008DFE
:06066F00538EEC438E02E5
:0C067500858D8BD28E758401D299852A68
:020681008422D1
:0E068300AA84758400C28E758900758E00757C
:0806910084017598008A84229F
:0E069900AA84758401A298E433F5828A842233
:0E06A700AA84758401A299E433F5828A842224
:0506B500AA8475840118
:0B06BA003098FD859982C2988A842246
:0706C500AA82AB84758401D9
:0506CC0010990280FB03
:0506D1008A998B8422D0
:0806D600FB7A20E4FCFDFEFFAD
:0E06DE00E5822582F582E58333F583E5F0336E
:0B06EC00F5F0EB33FB4017DAE9804229
:0E06F700E5822582F582E58333F583E5F03355
:05070500F5F0EB33FBF1
:0E070A00EC33FCED33FDEE33FEEF33FFEC95E8
:060718004BED954CEE953F
:08071E004DEF954E4013EC95E0
:080726004BFCED954CFDEE9536
:09072E004DFEEF954EFF438201E0
:02073700DABE28
:02073900EB22B1
:06003700E478FFF6D8FD9D
:080015007900E94400601B7A48
:05001D0000900E527876
:030022004575A27F
:0A00250000E493F2A308B8000205FE
:08002F00A2D9F4DAF275A2FF78
:0E073B0020F71030F6118883A88220F507F60B
:05074900A88375830088
:01074E002288
:03074F00F280F73E
:02075200F02293
:08003D007800E84400600A7934
:030045000075A2A1
:0600480000E4F309D8FCFE
:08004E007845E84400600C79DC
:0B00560001900000E4F0A3D8FCD9FAF0
:08075400C01A85811AC082E57C
:0C075C001A24FBF886820886830886F0C9
:0B076800120DDEFEA3120DDEFFA31237
:0D0773000DDEFA74012EFBE43FFC8A05E563
:0C0780001A24FBF886820886830886F0A5
:0C078C00EB12073BA3EC12073BA3ED129D
:0C079800073B8E828F838AF0A81A08E6C7
:0707A40012073B851A81D00A
:0207AB001A2210
:0807AD0085822F85833085F061
:0307B50031753E5D
:0507B8002F753F0075E4
:0407BD004040852B08
:0307C10041852C43
:0307C40042852D3E
:0307C70043852E39
:0507CA004490075412E9
:0907CF0008D2AA82AB83AC2FAD65
:0A07D80030AE318C828D838EF0E488
:0807E20012073B8A828B83227F
:0607EA00C01A85811AE52A
:0607F0001A24F8F544E5AF
:0707F6001A24FBFA8A3E758C
:0607FD003F00754040E5DD
:080803001A24F8F8864108866A
:05080B00420886439045
:0A08100007541208D2AA82AB83E558
:0C081A001A24FBF88604088605088606F0
:0E0826008C828D838EF0E412073B8A828B83D6
:03083400D01A22B5
:07083700AA82C034C035C0E5
:06083E0036744EC0E074A8
:0608440008C0E0C032C054
:04084A00338A822249
:0A084E00158115811581053CE4B504
:040858003C02053D1C
:01085C002279
:0B085D00AA8274302AFA7439B5020038
:0C086800500A74072AFA300403430220EF
:050874008A8202083732
:0E087900E582FAC4540FF582C00212085DD069
:0908870002740F5AF58202085DAB
:0608900085824BAB37AC82
:0408960038AD39AE92
:04089A003AAF3B75C1
:02089E004C20EC
:0E08A000EF2FFFEE235401FA4207EB2BFBEC87
:0C08AE0033FCED33FDEE33FEEFB54B00E4
:0A08BA004008EFC3954BFF43030114
:0608C400D54CD98B378CE6
:0408CA00388D398E9E
:0408CE003A8F3B2200
:0708D2008582328583338526
:0308D9003E348525
:0308DC003F358520
:0408DF004036E4F5C6
:0308E3003CF53DA4
:0508E600AA41AB42AC89
:0C08EB00438A828B838CF0120DDEFD74BA
:0908F700012AF541E43BF5428CB5
:0809000043EDFA7003020DBF84
:05090800BA2502800386
:03090D00020DB721
:05091000C205C206C291
:0409150007C208C24B
:0409190009C20AC243
:04091D000BC20C7588
:0809210045007546007DFFAEA4
:0409290041AF42ABED
:01092D004386
:0E092E008E828F838BF0120DDEFAA3AE82AFA5
:06093C00838E418F428B07
:0B09420043BA25078A8212083780990B
:05094D008A04BC30002B
:0909520040288A047439B5040040
:0C095B00401FBDFF11E54675F00AA42AFC
:0A09670024D0F54670C1D20680BD11
:0B097100ED75F00AA42A24D0FD80B22E
:0A097C00BA2E07BDFFAC7D0080A875
:050986008A04BC6100C1
:09098B0040108A04747AB50400DE
:0909940040075302DFD204800287
:02099D00C20492
:05099F00BA20028055A2
:0509A400BA2B02804B9C
:0509A900BA2D0280419F
:0509AE00BA4202804B7B
:0509B300BA4302805070
:0609B800BA4403020B60CB
:0609BE00BA4603020B76AD
:0609C400BA4903020B60BA
:0509CA00BA4C0280346C
:0609CF00BA4F03020B67A2
:0609D500BA5003020AF70C
:0509DB00BA5302804C3C
:0609E000BA5503020B6C86
:0609E600BA5803020B7178
:0309EC00020B7A81
:0509EF00D20502092EF3
:0509F400D20702092EEC
:0509F900D20802092EE6
:0509FE00D20A02092EDF
:050A0300D20B02092ED8
:080A0800300A0AE54414F888E5
:050A1000448602800F86
:0A0A1500E54424FEF8884486030837
:050A1F008604188B02A3
:080A24008A82120837020B83DD
:0A0A2C00E54424FDF8884486030821
:0A0A3600860408860618188B378C1A
:0A0A4000388E398B828C838EF0C053
:0E0A4A0005120DC6AB82AC83D005BDFF028B3A
:010A58000598
:070A590020052CEBB546005F
:090A60005026E546C39BF546ACA7
:010A69004646
:0C0A6A008C061C8C46EE6014758220C0C7
:0E0A760003C004C005120837D005D004D00319
:020A840080E40C
:020A86008C469C
:020A88008D04DB
:070A8A008537828538838562
:0C0A910039F0120DDEFDFA602F8C051C00
:0E0A9D00C374808DF063F08095F050208A8243
:0C0AAB00C003C004120837D004D003AD13
:040AB70037AE38AF6F
:060ABB00390DBD00010E23
:050AC1008D378E388F17
:030AC6003980C1B3
:060AC900200503020B836F
:040ACF00EBB546003D
:050AD3004003020B834B
:070AD800E546C39BF546ACA7
:010ADF0046D0
:0B0AE0008C051C8C46ED7003020B819E
:0C0AEB00758220C004120837D00480E996
:0A0AF700E54424FDF8884486050854
:0A0B0100860608860718188D378E47
:040B0B00388F39AD39
:040B0F0039BD80006C
:060B130040047A43801447
:030B1900BD6000BC
:060B1C0040047A50800B3A
:030B2200BD4000D3
:060B250040047A49800241
:020B2B007A58F6
:0E0B2D008A82C00212083775823A12083775A4
:0E0B3B008230120837758278120837D002BA5D
:040B49004902800BD2
:050B4D00BA5002800611
:060B5200853882120879CB
:080B5800853782120879802321
:070B6000D20975450A801C53
:050B6700754508801730
:050B6C0075450A80122E
:050B7100754510800D28
:040B7600D20C800914
:070B7A008A82120837800295
:020B81008C46A0
:090B8300300C5AE54424FCF8880A
:0C0B8C00448604088605088606088607D3
:080B98001818188C378D388EF7
:040BA000398F3A75DA
:030BA4003747755B
:030BA700380E7590
:020BAA00398090
:040BAC0085374885BC
:030BB0003849853C
:050BB300394A74012520
:070BB80048FFE43549FCADE4
:040BBF004A8F378C96
:040BC300388D3985AB
:060BC70048828549838588
:0A0BCD004AF0120DDEFCFA7003027C
:020BD70008E62E
:070BD9008A8212083780CC6C
:070BE000E54570030208E681
:040BE70075475630C8
:070BEB000A2BE54414F88811
:0A0BF20044E6FD3395E0FEFFFC8DA4
:040BFC00378E388F69
:040C0000398C3A20D1
:0A0C04000962AC377D007E007F001E
:050C0E008C378D388ECB
:050C1300398F3A80500A
:090C1800300B1FE54424FCF888B0
:0C0C21004486040886050886060886073D
:080C2D001818188C378D388E61
:050C3500398F3A802E0A
:0A0C3A00E54424FEF888448604080F
:0C0C4400860518ED3395E0FEFF8C378D1F
:040C5000388E398F12
:050C54003A200910AC7C
:080C590037AD387E007F008CEE
:040C6100378D388E05
:030C6500398F3A8A
:060C6800300925AC37AD98
:040C6E0038AE39E57E
:0C0C72003AFF30E717C3E49CFCE49DFD52
:0A0C7E00E49EFEE49FFF8C378D38E2
:060C88008E398F3A800254
:020C8E00C20999
:060C9000D20DA8477C0014
:0A0C9600753B00854582C004C000D4
:0B0CA000120890D000D004200D0DE5DC
:0A0CAB003BC4FDE6FE4DF618884735
:020CB5008002BB
:020CB700A63B5A
:080CB9000C8C03B20DE5374578
:040CC1003845394534
:080CC5003A70CE88478C03E56C
:060CCD00467003754601AC
:0A0CD300200625200522EB04FCADED
:010CDD0046D0
:040CDE00ECB505006C
:0E0CE2005015758220C003C004C005120837EB
:090CF000D005D004D0031D80E5FD
:020CF9008D4626
:0C0CFB0030090E75822DC003120837D09E
:050D07000315468023E6
:0C0D0C00EB602030070E75822BC0031234
:080D18000837D0031546800FD7
:0C0D200030080C758220C003120837D088
:030D2C0003154666
:050D2F00200525AC4683
:090D34008C051C8C46EBB5050092
:090D3D00502B3006047D308002C9
:020D46007D200E
:0E0D48008D82C003C004120837D004D003808F
:010D5600DDBF
:040D5700EBB54600B2
:0A0D5B005008E546C39BF5468007EB
:050D650075460080024C
:020D6A008C46B5
:020D6C00A84796
:0A0D6E008B041BEC6026B20D200D73
:0B0D78000A08E6C4540FFC8C3B800707
:070D83008604740F5CF53BD0
:0C0D8A00853B82C003C00012085DD00051
:040D9600D00380D432
:060D9A002005030208E63B
:020DA000AB4660
:090DA2008B041BEC70030208E64F
:0C0DAB00758220C003120837D00380EBD3
:080DB7008A821208370208E6E7
:070DBF00853C82853D832283
:0B0E47003C4E4F20464C4F41543E00F3
:040DC600AA82AB83CF
:080DCA00120DDE6003A380F8A6
:0C0DD200C3E5829AF582E5839BF583223D
:03000800758156A9
:0A000B00120DFAE582600302000303
:0E0DDE0020F71430F6148883A88220F507E66B
:060DEC00A88375830022BC
:030DF200E280F7A5
:030DF500E4932262
:020DF800E022F7
:040DFA0075820022DC
:00000001FF
